{
  "contractName": "ERC1155",
  "abi": [
    {
      "inputs": [],
      "stateMutability": "nonpayable",
      "type": "constructor"
    },
    {
      "anonymous": false,
      "inputs": [
        {
          "indexed": true,
          "internalType": "address",
          "name": "_owner",
          "type": "address"
        },
        {
          "indexed": true,
          "internalType": "address",
          "name": "_operator",
          "type": "address"
        },
        {
          "indexed": false,
          "internalType": "bool",
          "name": "_approved",
          "type": "bool"
        }
      ],
      "name": "ApprovalForAll",
      "type": "event"
    },
    {
      "anonymous": false,
      "inputs": [
        {
          "indexed": true,
          "internalType": "address",
          "name": "_operator",
          "type": "address"
        },
        {
          "indexed": true,
          "internalType": "address",
          "name": "_from",
          "type": "address"
        },
        {
          "indexed": true,
          "internalType": "address",
          "name": "_to",
          "type": "address"
        },
        {
          "indexed": false,
          "internalType": "uint256[]",
          "name": "_ids",
          "type": "uint256[]"
        },
        {
          "indexed": false,
          "internalType": "uint256[]",
          "name": "_values",
          "type": "uint256[]"
        }
      ],
      "name": "TransferBatch",
      "type": "event"
    },
    {
      "anonymous": false,
      "inputs": [
        {
          "indexed": true,
          "internalType": "address",
          "name": "_operator",
          "type": "address"
        },
        {
          "indexed": true,
          "internalType": "address",
          "name": "_from",
          "type": "address"
        },
        {
          "indexed": true,
          "internalType": "address",
          "name": "_to",
          "type": "address"
        },
        {
          "indexed": false,
          "internalType": "uint256",
          "name": "_id",
          "type": "uint256"
        },
        {
          "indexed": false,
          "internalType": "uint256",
          "name": "_value",
          "type": "uint256"
        }
      ],
      "name": "TransferSingle",
      "type": "event"
    },
    {
      "anonymous": false,
      "inputs": [
        {
          "indexed": false,
          "internalType": "string",
          "name": "_value",
          "type": "string"
        },
        {
          "indexed": true,
          "internalType": "uint256",
          "name": "_id",
          "type": "uint256"
        }
      ],
      "name": "URI",
      "type": "event"
    },
    {
      "inputs": [
        {
          "internalType": "address",
          "name": "_operator",
          "type": "address"
        },
        {
          "internalType": "address",
          "name": "_from",
          "type": "address"
        },
        {
          "internalType": "uint256",
          "name": "_id",
          "type": "uint256"
        },
        {
          "internalType": "uint256",
          "name": "_value",
          "type": "uint256"
        },
        {
          "internalType": "bytes",
          "name": "_data",
          "type": "bytes"
        }
      ],
      "name": "onERC1155Received",
      "outputs": [
        {
          "internalType": "bytes4",
          "name": "",
          "type": "bytes4"
        }
      ],
      "stateMutability": "view",
      "type": "function"
    },
    {
      "inputs": [
        {
          "internalType": "address",
          "name": "_operator",
          "type": "address"
        },
        {
          "internalType": "address",
          "name": "_from",
          "type": "address"
        },
        {
          "internalType": "uint256[]",
          "name": "_ids",
          "type": "uint256[]"
        },
        {
          "internalType": "uint256[]",
          "name": "_values",
          "type": "uint256[]"
        },
        {
          "internalType": "bytes",
          "name": "_data",
          "type": "bytes"
        }
      ],
      "name": "onERC1155BatchReceived",
      "outputs": [
        {
          "internalType": "bytes4",
          "name": "",
          "type": "bytes4"
        }
      ],
      "stateMutability": "view",
      "type": "function"
    },
    {
      "inputs": [
        {
          "internalType": "address",
          "name": "_from",
          "type": "address"
        },
        {
          "internalType": "address",
          "name": "_to",
          "type": "address"
        },
        {
          "internalType": "uint256",
          "name": "_id",
          "type": "uint256"
        },
        {
          "internalType": "uint256",
          "name": "_value",
          "type": "uint256"
        },
        {
          "internalType": "bytes",
          "name": "_data",
          "type": "bytes"
        }
      ],
      "name": "safeTransferFrom",
      "outputs": [],
      "stateMutability": "nonpayable",
      "type": "function"
    },
    {
      "inputs": [
        {
          "internalType": "address",
          "name": "_from",
          "type": "address"
        },
        {
          "internalType": "address",
          "name": "_to",
          "type": "address"
        },
        {
          "internalType": "uint256[]",
          "name": "_ids",
          "type": "uint256[]"
        },
        {
          "internalType": "uint256[]",
          "name": "_values",
          "type": "uint256[]"
        },
        {
          "internalType": "bytes",
          "name": "_data",
          "type": "bytes"
        }
      ],
      "name": "safeBatchTransferFrom",
      "outputs": [],
      "stateMutability": "nonpayable",
      "type": "function"
    },
    {
      "inputs": [
        {
          "internalType": "address",
          "name": "_owner",
          "type": "address"
        },
        {
          "internalType": "uint256",
          "name": "_id",
          "type": "uint256"
        }
      ],
      "name": "balanceOf",
      "outputs": [
        {
          "internalType": "uint256",
          "name": "",
          "type": "uint256"
        }
      ],
      "stateMutability": "view",
      "type": "function"
    },
    {
      "inputs": [
        {
          "internalType": "address[]",
          "name": "_owners",
          "type": "address[]"
        },
        {
          "internalType": "uint256[]",
          "name": "_ids",
          "type": "uint256[]"
        }
      ],
      "name": "balanceOfBatch",
      "outputs": [
        {
          "internalType": "uint256[]",
          "name": "",
          "type": "uint256[]"
        }
      ],
      "stateMutability": "view",
      "type": "function"
    },
    {
      "inputs": [
        {
          "internalType": "address",
          "name": "_operator",
          "type": "address"
        },
        {
          "internalType": "bool",
          "name": "_approved",
          "type": "bool"
        }
      ],
      "name": "setApprovalForAll",
      "outputs": [],
      "stateMutability": "nonpayable",
      "type": "function"
    },
    {
      "inputs": [
        {
          "internalType": "address",
          "name": "_owner",
          "type": "address"
        },
        {
          "internalType": "address",
          "name": "_operator",
          "type": "address"
        }
      ],
      "name": "isApprovedForAll",
      "outputs": [
        {
          "internalType": "bool",
          "name": "",
          "type": "bool"
        }
      ],
      "stateMutability": "view",
      "type": "function"
    }
  ],
  "bytecode": "0x608060405260405180806119516038913960380190506040518091039020600260006101000a81548163ffffffff021916908360e01c021790555060405180806119106041913960410190506040518091039020600260046101000a81548163ffffffff021916908360e01c021790555034801561007c57600080fd5b506118848061008c6000396000f3fe608060405234801561001057600080fd5b50600436106100875760003560e01c8063bc197c811161005b578063bc197c81146103c4578063e985e9c514610579578063f23a6e61146105f5578063f242432a1461071457610087565b8062fdd58e1461008c5780632eb2c2d6146100ee5780634e1273f414610251578063a22cb46514610374575b600080fd5b6100d8600480360360408110156100a257600080fd5b81019080803573ffffffffffffffffffffffffffffffffffffffff169060200190929190803590602001909291905050506107e1565b6040518082815260200191505060405180910390f35b61024f600480360360a081101561010457600080fd5b81019080803573ffffffffffffffffffffffffffffffffffffffff169060200190929190803573ffffffffffffffffffffffffffffffffffffffff1690602001909291908035906020019064010000000081111561016157600080fd5b82018360208201111561017357600080fd5b8035906020019184602083028401116401000000008311171561019557600080fd5b9091929391929390803590602001906401000000008111156101b657600080fd5b8201836020820111156101c857600080fd5b803590602001918460208302840111640100000000831117156101ea57600080fd5b90919293919293908035906020019064010000000081111561020b57600080fd5b82018360208201111561021d57600080fd5b8035906020019184600183028401116401000000008311171561023f57600080fd5b9091929391929390505050610874565b005b61031d6004803603604081101561026757600080fd5b810190808035906020019064010000000081111561028457600080fd5b82018360208201111561029657600080fd5b803590602001918460208302840111640100000000831117156102b857600080fd5b9091929391929390803590602001906401000000008111156102d957600080fd5b8201836020820111156102eb57600080fd5b8035906020019184602083028401116401000000008311171561030d57600080fd5b9091929391929390505050610cf2565b6040518080602001828103825283818151815260200191508051906020019060200280838360005b83811015610360578082015181840152602081019050610345565b505050509050019250505060405180910390f35b6103c26004803603604081101561038a57600080fd5b81019080803573ffffffffffffffffffffffffffffffffffffffff169060200190929190803515159060200190929190505050610e22565b005b610525600480360360a08110156103da57600080fd5b81019080803573ffffffffffffffffffffffffffffffffffffffff169060200190929190803573ffffffffffffffffffffffffffffffffffffffff1690602001909291908035906020019064010000000081111561043757600080fd5b82018360208201111561044957600080fd5b8035906020019184602083028401116401000000008311171561046b57600080fd5b90919293919293908035906020019064010000000081111561048c57600080fd5b82018360208201111561049e57600080fd5b803590602001918460208302840111640100000000831117156104c057600080fd5b9091929391929390803590602001906401000000008111156104e157600080fd5b8201836020820111156104f357600080fd5b8035906020019184600183028401116401000000008311171561051557600080fd5b9091929391929390505050610f96565b60405180827bffffffffffffffffffffffffffffffffffffffffffffffffffffffff19167bffffffffffffffffffffffffffffffffffffffffffffffffffffffff1916815260200191505060405180910390f35b6105db6004803603604081101561058f57600080fd5b81019080803573ffffffffffffffffffffffffffffffffffffffff169060200190929190803573ffffffffffffffffffffffffffffffffffffffff169060200190929190505050610fbf565b604051808215151515815260200191505060405180910390f35b6106c0600480360360a081101561060b57600080fd5b81019080803573ffffffffffffffffffffffffffffffffffffffff169060200190929190803573ffffffffffffffffffffffffffffffffffffffff16906020019092919080359060200190929190803590602001909291908035906020019064010000000081111561067c57600080fd5b82018360208201111561068e57600080fd5b803590602001918460018302840111640100000000831117156106b057600080fd5b9091929391929390505050611053565b60405180827bffffffffffffffffffffffffffffffffffffffffffffffffffffffff19167bffffffffffffffffffffffffffffffffffffffffffffffffffffffff1916815260200191505060405180910390f35b6107df600480360360a081101561072a57600080fd5b81019080803573ffffffffffffffffffffffffffffffffffffffff169060200190929190803573ffffffffffffffffffffffffffffffffffffffff16906020019092919080359060200190929190803590602001909291908035906020019064010000000081111561079b57600080fd5b8201836020820111156107ad57600080fd5b803590602001918460018302840111640100000000831117156107cf57600080fd5b909192939192939050505061107a565b005b60008073ffffffffffffffffffffffffffffffffffffffff168373ffffffffffffffffffffffffffffffffffffffff16141561081c57600080fd5b6000808473ffffffffffffffffffffffffffffffffffffffff1673ffffffffffffffffffffffffffffffffffffffff168152602001908152602001600020600083815260200190815260200160002054905092915050565b600073ffffffffffffffffffffffffffffffffffffffff168773ffffffffffffffffffffffffffffffffffffffff1614156108ae57600080fd5b838390508686905014156108c157600080fd5b600160008973ffffffffffffffffffffffffffffffffffffffff1673ffffffffffffffffffffffffffffffffffffffff16815260200190815260200160002060003373ffffffffffffffffffffffffffffffffffffffff1673ffffffffffffffffffffffffffffffffffffffff16815260200190815260200160002060009054906101000a900460ff168061098157503373ffffffffffffffffffffffffffffffffffffffff168873ffffffffffffffffffffffffffffffffffffffff16145b61098a57600080fd5b60008090505b86869050811015610b28578484828181106109a757fe5b905060200201356000808b73ffffffffffffffffffffffffffffffffffffffff1673ffffffffffffffffffffffffffffffffffffffff16815260200190815260200160002060008989858181106109fa57fe5b905060200201358152602001908152602001600020541015610a1b57600080fd5b848482818110610a2757fe5b905060200201356000808b73ffffffffffffffffffffffffffffffffffffffff1673ffffffffffffffffffffffffffffffffffffffff1681526020019081526020016000206000898985818110610a7a57fe5b90506020020135815260200190815260200160002060008282540392505081905550848482818110610aa857fe5b905060200201356000808a73ffffffffffffffffffffffffffffffffffffffff1673ffffffffffffffffffffffffffffffffffffffff1681526020019081526020016000206000898985818110610afb57fe5b90506020020135815260200190815260200160002060008282540192505081905550806001019050610990565b508673ffffffffffffffffffffffffffffffffffffffff168873ffffffffffffffffffffffffffffffffffffffff163373ffffffffffffffffffffffffffffffffffffffff167f4a39dc06d4c0dbc64b70af90fd698a233a518aa5d07e595d983b8c0526c8f7fb898989896040518080602001806020018381038352878782818152602001925060200280828437600081840152601f19601f8201169050808301925050508381038252858582818152602001925060200280828437600081840152601f19601f820116905080830192505050965050505050505060405180910390a4610cdf338989898980806020026020016040519081016040528093929190818152602001838360200280828437600081840152601f19601f82011690508083019250505050505050888880806020026020016040519081016040528093929190818152602001838360200280828437600081840152601f19601f8201169050808301925050505050505087878080601f016020809104026020016040519081016040528093929190818152602001838380828437600081840152601f19601f8201169050808301925050505050505061137a565b610ce857600080fd5b5050505050505050565b60608060008090505b86869050811015610e1557600073ffffffffffffffffffffffffffffffffffffffff16878783818110610d2a57fe5b9050602002013573ffffffffffffffffffffffffffffffffffffffff1673ffffffffffffffffffffffffffffffffffffffff161415610d6857600080fd5b600080888884818110610d7757fe5b9050602002013573ffffffffffffffffffffffffffffffffffffffff1673ffffffffffffffffffffffffffffffffffffffff1673ffffffffffffffffffffffffffffffffffffffff1681526020019081526020016000206000868684818110610ddc57fe5b90506020020135815260200190815260200160002054828281518110610dfe57fe5b602002602001018181525050806001019050610cfb565b5080915050949350505050565b600073ffffffffffffffffffffffffffffffffffffffff168273ffffffffffffffffffffffffffffffffffffffff161415610e5c57600080fd5b8173ffffffffffffffffffffffffffffffffffffffff163373ffffffffffffffffffffffffffffffffffffffff161415610e9557600080fd5b80600160003373ffffffffffffffffffffffffffffffffffffffff1673ffffffffffffffffffffffffffffffffffffffff16815260200190815260200160002060008473ffffffffffffffffffffffffffffffffffffffff1673ffffffffffffffffffffffffffffffffffffffff16815260200190815260200160002060006101000a81548160ff0219169083151502179055508173ffffffffffffffffffffffffffffffffffffffff163373ffffffffffffffffffffffffffffffffffffffff167f17307eab39ab6107e8899845ad3d59bd9653f200f220920489ca2b5937696c3183604051808215151515815260200191505060405180910390a35050565b600060405180806117d66041913960410190506040518091039020905098975050505050505050565b6000600160008473ffffffffffffffffffffffffffffffffffffffff1673ffffffffffffffffffffffffffffffffffffffff16815260200190815260200160002060008373ffffffffffffffffffffffffffffffffffffffff1673ffffffffffffffffffffffffffffffffffffffff16815260200190815260200160002060009054906101000a900460ff16905092915050565b60006040518080611817603891396038019050604051809103902090509695505050505050565b600073ffffffffffffffffffffffffffffffffffffffff168573ffffffffffffffffffffffffffffffffffffffff1614156110b457600080fd5b826000808873ffffffffffffffffffffffffffffffffffffffff1673ffffffffffffffffffffffffffffffffffffffff168152602001908152602001600020600086815260200190815260200160002054101561111057600080fd5b600160008773ffffffffffffffffffffffffffffffffffffffff1673ffffffffffffffffffffffffffffffffffffffff16815260200190815260200160002060003373ffffffffffffffffffffffffffffffffffffffff1673ffffffffffffffffffffffffffffffffffffffff16815260200190815260200160002060009054906101000a900460ff16806111d057503373ffffffffffffffffffffffffffffffffffffffff168673ffffffffffffffffffffffffffffffffffffffff16145b6111d957600080fd5b826000808873ffffffffffffffffffffffffffffffffffffffff1673ffffffffffffffffffffffffffffffffffffffff168152602001908152602001600020600086815260200190815260200160002060008282540392505081905550826000808773ffffffffffffffffffffffffffffffffffffffff1673ffffffffffffffffffffffffffffffffffffffff1681526020019081526020016000206000868152602001908152602001600020600082825401925050819055508473ffffffffffffffffffffffffffffffffffffffff168673ffffffffffffffffffffffffffffffffffffffff163373ffffffffffffffffffffffffffffffffffffffff167fc3d58168c5ae7397731d063d5bbf3d657854427343f4c083240f7aacaa2d0f628787604051808381526020018281526020019250505060405180910390a4611369338787878787878080601f016020809104026020016040519081016040528093929190818152602001838380828437600081840152601f19601f820116905080830192505050505050506115df565b61137257600080fd5b505050505050565b6000611385856117c2565b61139257600190506115d5565b60008573ffffffffffffffffffffffffffffffffffffffff1663bc197c8189898888886040518663ffffffff1660e01b8152600401808673ffffffffffffffffffffffffffffffffffffffff1673ffffffffffffffffffffffffffffffffffffffff1681526020018573ffffffffffffffffffffffffffffffffffffffff1673ffffffffffffffffffffffffffffffffffffffff168152602001806020018060200180602001848103845287818151815260200191508051906020019060200280838360005b83811015611473578082015181840152602081019050611458565b50505050905001848103835286818151815260200191508051906020019060200280838360005b838110156114b557808201518184015260208101905061149a565b50505050905001848103825285818151815260200191508051906020019080838360005b838110156114f45780820151818401526020810190506114d9565b50505050905090810190601f1680156115215780820380516001836020036101000a031916815260200191505b509850505050505050505060206040518083038186803b15801561154457600080fd5b505afa158015611558573d6000803e3d6000fd5b505050506040513d602081101561156e57600080fd5b81019080805190602001909291905050509050600260049054906101000a900460e01b7bffffffffffffffffffffffffffffffffffffffffffffffffffffffff1916817bffffffffffffffffffffffffffffffffffffffffffffffffffffffff1916149150505b9695505050505050565b60006115ea856117c2565b6115f757600190506117b8565b60008573ffffffffffffffffffffffffffffffffffffffff1663f23a6e6189898888886040518663ffffffff1660e01b8152600401808673ffffffffffffffffffffffffffffffffffffffff1673ffffffffffffffffffffffffffffffffffffffff1681526020018573ffffffffffffffffffffffffffffffffffffffff1673ffffffffffffffffffffffffffffffffffffffff16815260200184815260200183815260200180602001828103825283818151815260200191508051906020019080838360005b838110156116d95780820151818401526020810190506116be565b50505050905090810190601f1680156117065780820380516001836020036101000a031916815260200191505b50965050505050505060206040518083038186803b15801561172757600080fd5b505afa15801561173b573d6000803e3d6000fd5b505050506040513d602081101561175157600080fd5b81019080805190602001909291905050509050600260009054906101000a900460e01b7bffffffffffffffffffffffffffffffffffffffffffffffffffffffff1916817bffffffffffffffffffffffffffffffffffffffffffffffffffffffff1916149150505b9695505050505050565b600080823b90506000811191505091905056fe6f6e455243313135354261746368526563656976656428616464726573732c616464726573732c75696e743235365b5d2c75696e743235365b5d2c6279746573296f6e45524331313535526563656976656428616464726573732c616464726573732c75696e743235362c75696e743235362c627974657329a26469706673582212207d2d39f595c795f4464e115472965053ece1ca40e57289ed00c36dfd5132ebdd64736f6c634300060000336f6e455243313135354261746368526563656976656428616464726573732c616464726573732c75696e743235365b5d2c75696e743235365b5d2c6279746573296f6e45524331313535526563656976656428616464726573732c616464726573732c75696e743235362c75696e743235362c627974657329",
  "source": "pragma solidity ^0.6.0;\r\n\r\nimport './IERC1155.sol';\r\nimport './IERC1155TokenReceiver.sol';\r\n\r\ncontract ERC1155 is IERC1155, IERC1155TokenReceiver{\r\n    event TransferSingle(address indexed _operator, address indexed _from, address indexed _to, uint256 _id, uint256 _value);\r\n    event TransferBatch(address indexed _operator, address indexed _from, address indexed _to, uint256[] _ids, uint256[] _values);\r\n    event ApprovalForAll(address indexed _owner, address indexed _operator, bool _approved);\r\n    event URI(string _value, uint256 indexed _id);\r\n\r\n    mapping (address => mapping(uint256 => uint256)) private _balance;\r\n    mapping (address => mapping (address => bool)) private _approv;\r\n\r\n    bytes4 private _ERC1155Received = bytes4(keccak256(\"onERC1155Received(address,address,uint256,uint256,bytes)\"));\r\n    bytes4 private _ERC1155BatchReceived = bytes4(keccak256(\"onERC1155BatchReceived(address,address,uint256[],uint256[],bytes)\"));\r\n\r\n    constructor() public {\r\n\r\n    }\r\n\r\n    function onERC1155Received(\r\n        address _operator, \r\n        address _from, \r\n        uint256 _id, \r\n        uint256 _value, \r\n        bytes calldata _data\r\n    ) external override view returns(bytes4){\r\n        return bytes4(keccak256(\"onERC1155Received(address,address,uint256,uint256,bytes)\"));\r\n    }\r\n\r\n    function onERC1155BatchReceived(\r\n        address _operator, \r\n        address _from, \r\n        uint256[] calldata _ids, \r\n        uint256[] calldata _values, \r\n        bytes calldata _data\r\n    ) external override view returns(bytes4){\r\n        return bytes4(keccak256(\"onERC1155BatchReceived(address,address,uint256[],uint256[],bytes)\"));\r\n    } \r\n    \r\n    function safeTransferFrom(address _from, address _to, uint256 _id, uint256 _value, bytes calldata _data) external override{\r\n        require(_to != address(0));\r\n        require(_balance[_from][_id] >= _value);\r\n        require(_approv[_from][msg.sender] || _from == msg.sender);\r\n        _balance[_from][_id] -= _value;\r\n        _balance[_to][_id] += _value; \r\n        emit TransferSingle(msg.sender, _from,  _to, _id, _value);\r\n        require(_checkOnERC1155Received(msg.sender, _from, _to, _id, _value, _data));\r\n    }\r\n\r\n    function safeBatchTransferFrom(address _from, address _to, uint256[] calldata _ids, uint256[] calldata _values, bytes calldata _data) external override{\r\n        require(_to != address(0));\r\n        require(_ids.length != _values.length);\r\n        require(_approv[_from][msg.sender] || _from == msg.sender);\r\n        for (uint256 i = 0; i < _ids.length; ++i) {\r\n            require(_balance[_from][_ids[i]] >= _values[i]);\r\n            _balance[_from][_ids[i]] -= _values[i];\r\n            _balance[_to][_ids[i]] += _values[i];\r\n        }\r\n        emit TransferBatch(msg.sender, _from, _to, _ids, _values);\r\n        require(_checkOnERC1155BatchReceived(msg.sender, _from, _to, _ids, _values, _data));\r\n    }\r\n\r\n    function balanceOf(address _owner, uint256 _id) external override view returns (uint256){\r\n        require(_owner != address(0));\r\n        return _balance[_owner][_id];\r\n    }\r\n\r\n    function balanceOfBatch(address[] calldata _owners, uint256[] calldata _ids) external override view returns (uint256[] memory){\r\n        uint256[] memory _balances;\r\n        for (uint256 i = 0; i < _owners.length; ++i) {\r\n            require(_owners[i] != address(0));\r\n            _balances[i] = _balance[_owners[i]][_ids[i]]; \r\n        }\r\n        return _balances;\r\n    }\r\n\r\n    function setApprovalForAll(address _operator, bool _approved) external override{\r\n        require(_operator != address(0));\r\n        require(msg.sender != _operator);\r\n\r\n        _approv[msg.sender][_operator] = _approved;\r\n        emit ApprovalForAll(msg.sender, _operator, _approved);\r\n    }\r\n\r\n    function isApprovedForAll(address _owner, address _operator) external override view returns (bool){\r\n        return _approv[_owner][_operator];\r\n    }\r\n\r\n    function _checkOnERC1155Received(\r\n        address _operator, \r\n        address _from, \r\n        address _to, \r\n        uint256 _tokenId, \r\n        uint256 _amount, \r\n        bytes memory _data\r\n    ) internal returns (bool){\r\n        if (!isContract(_to)) {\r\n            return true;\r\n        }\r\n        bytes4 retval = IERC1155TokenReceiver(_to).onERC1155Received(_operator, _from, _tokenId, _amount,_data);\r\n        return (retval == _ERC1155Received);\r\n    }\r\n\r\n    function _checkOnERC1155BatchReceived(\r\n        address _operator, \r\n        address _from, \r\n        address _to, \r\n        uint256[] memory _Ids, \r\n        uint256[] memory _amounts, \r\n        bytes memory _data\r\n    ) internal returns (bool){\r\n        if (!isContract(_to)) {\r\n            return true;\r\n        }\r\n        \r\n        bytes4 retval = IERC1155TokenReceiver(_to).onERC1155BatchReceived(_operator, _from, _Ids, _amounts,_data);\r\n        return (retval == _ERC1155BatchReceived);\r\n    }\r\n\r\n    function isContract(address addr) internal returns (bool) {\r\n        uint size;\r\n        assembly{ size := extcodesize(addr)}\r\n        return size > 0;\r\n    }\r\n}",
  "sourcePath": "C:/Users/esdra/OneDrive/rea de Trabalho/solTraining/contracts/ERC1155/ERC1155.sol",
  "compiler": {
    "name": "solc",
    "version": "0.6.0+commit.26b70077.Emscripten.clang"
  },
  "schemaVersion": "3.3.4",
  "updatedAt": "2021-05-07T20:33:41.374Z",
  "devdoc": {
    "methods": {}
  },
  "userdoc": {
    "methods": {}
  }
}