{
  "contractName": "ERC1155",
  "abi": [
    {
      "inputs": [],
      "stateMutability": "nonpayable",
      "type": "constructor"
    },
    {
      "anonymous": false,
      "inputs": [
        {
          "indexed": true,
          "internalType": "address",
          "name": "_owner",
          "type": "address"
        },
        {
          "indexed": true,
          "internalType": "address",
          "name": "_operator",
          "type": "address"
        },
        {
          "indexed": false,
          "internalType": "bool",
          "name": "_approved",
          "type": "bool"
        }
      ],
      "name": "ApprovalForAll",
      "type": "event"
    },
    {
      "anonymous": false,
      "inputs": [
        {
          "indexed": true,
          "internalType": "address",
          "name": "_operator",
          "type": "address"
        },
        {
          "indexed": true,
          "internalType": "address",
          "name": "_from",
          "type": "address"
        },
        {
          "indexed": true,
          "internalType": "address",
          "name": "_to",
          "type": "address"
        },
        {
          "indexed": false,
          "internalType": "uint256[]",
          "name": "_ids",
          "type": "uint256[]"
        },
        {
          "indexed": false,
          "internalType": "uint256[]",
          "name": "_values",
          "type": "uint256[]"
        }
      ],
      "name": "TransferBatch",
      "type": "event"
    },
    {
      "anonymous": false,
      "inputs": [
        {
          "indexed": true,
          "internalType": "address",
          "name": "_operator",
          "type": "address"
        },
        {
          "indexed": true,
          "internalType": "address",
          "name": "_from",
          "type": "address"
        },
        {
          "indexed": true,
          "internalType": "address",
          "name": "_to",
          "type": "address"
        },
        {
          "indexed": false,
          "internalType": "uint256",
          "name": "_id",
          "type": "uint256"
        },
        {
          "indexed": false,
          "internalType": "uint256",
          "name": "_value",
          "type": "uint256"
        }
      ],
      "name": "TransferSingle",
      "type": "event"
    },
    {
      "anonymous": false,
      "inputs": [
        {
          "indexed": false,
          "internalType": "string",
          "name": "_value",
          "type": "string"
        },
        {
          "indexed": true,
          "internalType": "uint256",
          "name": "_id",
          "type": "uint256"
        }
      ],
      "name": "URI",
      "type": "event"
    },
    {
      "stateMutability": "payable",
      "type": "fallback",
      "payable": true
    },
    {
      "inputs": [
        {
          "internalType": "address",
          "name": "_operator",
          "type": "address"
        },
        {
          "internalType": "address",
          "name": "_from",
          "type": "address"
        },
        {
          "internalType": "uint256",
          "name": "_id",
          "type": "uint256"
        },
        {
          "internalType": "uint256",
          "name": "_value",
          "type": "uint256"
        },
        {
          "internalType": "bytes",
          "name": "_data",
          "type": "bytes"
        }
      ],
      "name": "onERC1155Received",
      "outputs": [
        {
          "internalType": "bytes4",
          "name": "",
          "type": "bytes4"
        }
      ],
      "stateMutability": "view",
      "type": "function",
      "constant": true
    },
    {
      "inputs": [
        {
          "internalType": "address",
          "name": "_operator",
          "type": "address"
        },
        {
          "internalType": "address",
          "name": "_from",
          "type": "address"
        },
        {
          "internalType": "uint256[]",
          "name": "_ids",
          "type": "uint256[]"
        },
        {
          "internalType": "uint256[]",
          "name": "_values",
          "type": "uint256[]"
        },
        {
          "internalType": "bytes",
          "name": "_data",
          "type": "bytes"
        }
      ],
      "name": "onERC1155BatchReceived",
      "outputs": [
        {
          "internalType": "bytes4",
          "name": "",
          "type": "bytes4"
        }
      ],
      "stateMutability": "view",
      "type": "function",
      "constant": true
    },
    {
      "inputs": [
        {
          "internalType": "uint256",
          "name": "id",
          "type": "uint256"
        },
        {
          "internalType": "uint256",
          "name": "amount",
          "type": "uint256"
        }
      ],
      "name": "mint",
      "outputs": [],
      "stateMutability": "nonpayable",
      "type": "function"
    },
    {
      "inputs": [],
      "name": "depositEther",
      "outputs": [],
      "stateMutability": "payable",
      "type": "function",
      "payable": true
    },
    {
      "inputs": [
        {
          "internalType": "address",
          "name": "owner",
          "type": "address"
        }
      ],
      "name": "etherBalanceOf",
      "outputs": [
        {
          "internalType": "uint256",
          "name": "",
          "type": "uint256"
        }
      ],
      "stateMutability": "view",
      "type": "function",
      "constant": true
    },
    {
      "inputs": [
        {
          "internalType": "address",
          "name": "_from",
          "type": "address"
        },
        {
          "internalType": "address",
          "name": "_to",
          "type": "address"
        },
        {
          "internalType": "uint256",
          "name": "_id",
          "type": "uint256"
        },
        {
          "internalType": "uint256",
          "name": "_value",
          "type": "uint256"
        },
        {
          "internalType": "bytes",
          "name": "_data",
          "type": "bytes"
        }
      ],
      "name": "safeTransferFrom",
      "outputs": [],
      "stateMutability": "nonpayable",
      "type": "function"
    },
    {
      "inputs": [
        {
          "internalType": "address",
          "name": "_from",
          "type": "address"
        },
        {
          "internalType": "address",
          "name": "_to",
          "type": "address"
        },
        {
          "internalType": "uint256[]",
          "name": "_ids",
          "type": "uint256[]"
        },
        {
          "internalType": "uint256[]",
          "name": "_values",
          "type": "uint256[]"
        },
        {
          "internalType": "bytes",
          "name": "_data",
          "type": "bytes"
        }
      ],
      "name": "safeBatchTransferFrom",
      "outputs": [],
      "stateMutability": "nonpayable",
      "type": "function"
    },
    {
      "inputs": [
        {
          "internalType": "address",
          "name": "_owner",
          "type": "address"
        },
        {
          "internalType": "uint256",
          "name": "_id",
          "type": "uint256"
        }
      ],
      "name": "balanceOf",
      "outputs": [
        {
          "internalType": "uint256",
          "name": "",
          "type": "uint256"
        }
      ],
      "stateMutability": "view",
      "type": "function",
      "constant": true
    },
    {
      "inputs": [
        {
          "internalType": "address[]",
          "name": "_owners",
          "type": "address[]"
        },
        {
          "internalType": "uint256[]",
          "name": "_ids",
          "type": "uint256[]"
        }
      ],
      "name": "balanceOfBatch",
      "outputs": [
        {
          "internalType": "uint256[]",
          "name": "",
          "type": "uint256[]"
        }
      ],
      "stateMutability": "view",
      "type": "function",
      "constant": true
    },
    {
      "inputs": [
        {
          "internalType": "address",
          "name": "_operator",
          "type": "address"
        },
        {
          "internalType": "bool",
          "name": "_approved",
          "type": "bool"
        }
      ],
      "name": "setApprovalForAll",
      "outputs": [],
      "stateMutability": "nonpayable",
      "type": "function"
    },
    {
      "inputs": [
        {
          "internalType": "address",
          "name": "_owner",
          "type": "address"
        },
        {
          "internalType": "address",
          "name": "_operator",
          "type": "address"
        }
      ],
      "name": "isApprovedForAll",
      "outputs": [
        {
          "internalType": "bool",
          "name": "",
          "type": "bool"
        }
      ],
      "stateMutability": "view",
      "type": "function",
      "constant": true
    }
  ],
  "bytecode": "0x60806040526040518080611c8a6038913960380190506040518091039020600360006101000a81548163ffffffff021916908360e01c02179055506040518080611c496041913960410190506040518091039020600360046101000a81548163ffffffff021916908360e01c021790555034801561007c57600080fd5b50611bbd8061008c6000396000f3fe60806040526004361061009f5760003560e01c806398ea5fca1161006457806398ea5fca146104b8578063a22cb465146104c2578063bc197c811461051f578063e985e9c5146106e1578063f23a6e611461076a578063f242432a14610896576100a0565b8062fdd58e146100ff578063179fc99f1461016e5780631b2ef1ca146101d35780632eb2c2d6146102185780634e1273f414610388576100a0565b5b600080369050146100b057600080fd5b34600160003373ffffffffffffffffffffffffffffffffffffffff1673ffffffffffffffffffffffffffffffffffffffff16815260200190815260200160002060008282540192505081905550005b34801561010b57600080fd5b506101586004803603604081101561012257600080fd5b81019080803573ffffffffffffffffffffffffffffffffffffffff16906020019092919080359060200190929190505050610970565b6040518082815260200191505060405180910390f35b34801561017a57600080fd5b506101bd6004803603602081101561019157600080fd5b81019080803573ffffffffffffffffffffffffffffffffffffffff169060200190929190505050610a03565b6040518082815260200191505060405180910390f35b3480156101df57600080fd5b50610216600480360360408110156101f657600080fd5b810190808035906020019092919080359060200190929190505050610a4c565b005b34801561022457600080fd5b50610386600480360360a081101561023b57600080fd5b81019080803573ffffffffffffffffffffffffffffffffffffffff169060200190929190803573ffffffffffffffffffffffffffffffffffffffff1690602001909291908035906020019064010000000081111561029857600080fd5b8201836020820111156102aa57600080fd5b803590602001918460208302840111640100000000831117156102cc57600080fd5b9091929391929390803590602001906401000000008111156102ed57600080fd5b8201836020820111156102ff57600080fd5b8035906020019184602083028401116401000000008311171561032157600080fd5b90919293919293908035906020019064010000000081111561034257600080fd5b82018360208201111561035457600080fd5b8035906020019184600183028401116401000000008311171561037657600080fd5b9091929391929390505050610aa4565b005b34801561039457600080fd5b50610461600480360360408110156103ab57600080fd5b81019080803590602001906401000000008111156103c857600080fd5b8201836020820111156103da57600080fd5b803590602001918460208302840111640100000000831117156103fc57600080fd5b90919293919293908035906020019064010000000081111561041d57600080fd5b82018360208201111561042f57600080fd5b8035906020019184602083028401116401000000008311171561045157600080fd5b9091929391929390505050610f5b565b6040518080602001828103825283818151815260200191508051906020019060200280838360005b838110156104a4578082015181840152602081019050610489565b505050509050019250505060405180910390f35b6104c061108b565b005b3480156104ce57600080fd5b5061051d600480360360408110156104e557600080fd5b81019080803573ffffffffffffffffffffffffffffffffffffffff1690602001909291908035151590602001909291905050506110da565b005b34801561052b57600080fd5b5061068d600480360360a081101561054257600080fd5b81019080803573ffffffffffffffffffffffffffffffffffffffff169060200190929190803573ffffffffffffffffffffffffffffffffffffffff1690602001909291908035906020019064010000000081111561059f57600080fd5b8201836020820111156105b157600080fd5b803590602001918460208302840111640100000000831117156105d357600080fd5b9091929391929390803590602001906401000000008111156105f457600080fd5b82018360208201111561060657600080fd5b8035906020019184602083028401116401000000008311171561062857600080fd5b90919293919293908035906020019064010000000081111561064957600080fd5b82018360208201111561065b57600080fd5b8035906020019184600183028401116401000000008311171561067d57600080fd5b909192939192939050505061124e565b60405180827bffffffffffffffffffffffffffffffffffffffffffffffffffffffff19167bffffffffffffffffffffffffffffffffffffffffffffffffffffffff1916815260200191505060405180910390f35b3480156106ed57600080fd5b506107506004803603604081101561070457600080fd5b81019080803573ffffffffffffffffffffffffffffffffffffffff169060200190929190803573ffffffffffffffffffffffffffffffffffffffff169060200190929190505050611277565b604051808215151515815260200191505060405180910390f35b34801561077657600080fd5b50610842600480360360a081101561078d57600080fd5b81019080803573ffffffffffffffffffffffffffffffffffffffff169060200190929190803573ffffffffffffffffffffffffffffffffffffffff1690602001909291908035906020019092919080359060200190929190803590602001906401000000008111156107fe57600080fd5b82018360208201111561081057600080fd5b8035906020019184600183028401116401000000008311171561083257600080fd5b909192939192939050505061130b565b60405180827bffffffffffffffffffffffffffffffffffffffffffffffffffffffff19167bffffffffffffffffffffffffffffffffffffffffffffffffffffffff1916815260200191505060405180910390f35b3480156108a257600080fd5b5061096e600480360360a08110156108b957600080fd5b81019080803573ffffffffffffffffffffffffffffffffffffffff169060200190929190803573ffffffffffffffffffffffffffffffffffffffff16906020019092919080359060200190929190803590602001909291908035906020019064010000000081111561092a57600080fd5b82018360208201111561093c57600080fd5b8035906020019184600183028401116401000000008311171561095e57600080fd5b9091929391929390505050611332565b005b60008073ffffffffffffffffffffffffffffffffffffffff168373ffffffffffffffffffffffffffffffffffffffff1614156109ab57600080fd5b6000808473ffffffffffffffffffffffffffffffffffffffff1673ffffffffffffffffffffffffffffffffffffffff168152602001908152602001600020600083815260200190815260200160002054905092915050565b6000600160008373ffffffffffffffffffffffffffffffffffffffff1673ffffffffffffffffffffffffffffffffffffffff168152602001908152602001600020549050919050565b806000803373ffffffffffffffffffffffffffffffffffffffff1673ffffffffffffffffffffffffffffffffffffffff1681526020019081526020016000206000848152602001908152602001600020819055505050565b600073ffffffffffffffffffffffffffffffffffffffff168773ffffffffffffffffffffffffffffffffffffffff1614158015610b0e5750600073ffffffffffffffffffffffffffffffffffffffff168873ffffffffffffffffffffffffffffffffffffffff1614155b610b1757600080fd5b83839050868690501415610b2a57600080fd5b600260008973ffffffffffffffffffffffffffffffffffffffff1673ffffffffffffffffffffffffffffffffffffffff16815260200190815260200160002060003373ffffffffffffffffffffffffffffffffffffffff1673ffffffffffffffffffffffffffffffffffffffff16815260200190815260200160002060009054906101000a900460ff1680610bea57503373ffffffffffffffffffffffffffffffffffffffff168873ffffffffffffffffffffffffffffffffffffffff16145b610bf357600080fd5b60008090505b86869050811015610d9157848482818110610c1057fe5b905060200201356000808b73ffffffffffffffffffffffffffffffffffffffff1673ffffffffffffffffffffffffffffffffffffffff1681526020019081526020016000206000898985818110610c6357fe5b905060200201358152602001908152602001600020541015610c8457600080fd5b848482818110610c9057fe5b905060200201356000808b73ffffffffffffffffffffffffffffffffffffffff1673ffffffffffffffffffffffffffffffffffffffff1681526020019081526020016000206000898985818110610ce357fe5b90506020020135815260200190815260200160002060008282540392505081905550848482818110610d1157fe5b905060200201356000808a73ffffffffffffffffffffffffffffffffffffffff1673ffffffffffffffffffffffffffffffffffffffff1681526020019081526020016000206000898985818110610d6457fe5b90506020020135815260200190815260200160002060008282540192505081905550806001019050610bf9565b508673ffffffffffffffffffffffffffffffffffffffff168873ffffffffffffffffffffffffffffffffffffffff163373ffffffffffffffffffffffffffffffffffffffff167f4a39dc06d4c0dbc64b70af90fd698a233a518aa5d07e595d983b8c0526c8f7fb898989896040518080602001806020018381038352878782818152602001925060200280828437600081840152601f19601f8201169050808301925050508381038252858582818152602001925060200280828437600081840152601f19601f820116905080830192505050965050505050505060405180910390a4610f48338989898980806020026020016040519081016040528093929190818152602001838360200280828437600081840152601f19601f82011690508083019250505050505050888880806020026020016040519081016040528093929190818152602001838360200280828437600081840152601f19601f8201169050808301925050505050505087878080601f016020809104026020016040519081016040528093929190818152602001838380828437600081840152601f19601f820116905080830192505050505050506116b3565b610f5157600080fd5b5050505050505050565b60608060008090505b8686905081101561107e57600073ffffffffffffffffffffffffffffffffffffffff16878783818110610f9357fe5b9050602002013573ffffffffffffffffffffffffffffffffffffffff1673ffffffffffffffffffffffffffffffffffffffff161415610fd157600080fd5b600080888884818110610fe057fe5b9050602002013573ffffffffffffffffffffffffffffffffffffffff1673ffffffffffffffffffffffffffffffffffffffff1673ffffffffffffffffffffffffffffffffffffffff168152602001908152602001600020600086868481811061104557fe5b9050602002013581526020019081526020016000205482828151811061106757fe5b602002602001018181525050806001019050610f64565b5080915050949350505050565b34600160003373ffffffffffffffffffffffffffffffffffffffff1673ffffffffffffffffffffffffffffffffffffffff16815260200190815260200160002060008282540192505081905550565b600073ffffffffffffffffffffffffffffffffffffffff168273ffffffffffffffffffffffffffffffffffffffff16141561111457600080fd5b8173ffffffffffffffffffffffffffffffffffffffff163373ffffffffffffffffffffffffffffffffffffffff16141561114d57600080fd5b80600260003373ffffffffffffffffffffffffffffffffffffffff1673ffffffffffffffffffffffffffffffffffffffff16815260200190815260200160002060008473ffffffffffffffffffffffffffffffffffffffff1673ffffffffffffffffffffffffffffffffffffffff16815260200190815260200160002060006101000a81548160ff0219169083151502179055508173ffffffffffffffffffffffffffffffffffffffff163373ffffffffffffffffffffffffffffffffffffffff167f17307eab39ab6107e8899845ad3d59bd9653f200f220920489ca2b5937696c3183604051808215151515815260200191505060405180910390a35050565b60006040518080611b0f6041913960410190506040518091039020905098975050505050505050565b6000600260008473ffffffffffffffffffffffffffffffffffffffff1673ffffffffffffffffffffffffffffffffffffffff16815260200190815260200160002060008373ffffffffffffffffffffffffffffffffffffffff1673ffffffffffffffffffffffffffffffffffffffff16815260200190815260200160002060009054906101000a900460ff16905092915050565b60006040518080611b50603891396038019050604051809103902090509695505050505050565b600073ffffffffffffffffffffffffffffffffffffffff168573ffffffffffffffffffffffffffffffffffffffff161415801561139c5750600073ffffffffffffffffffffffffffffffffffffffff168673ffffffffffffffffffffffffffffffffffffffff1614155b6113a557600080fd5b826000808873ffffffffffffffffffffffffffffffffffffffff1673ffffffffffffffffffffffffffffffffffffffff168152602001908152602001600020600086815260200190815260200160002054101561140157600080fd5b600260008773ffffffffffffffffffffffffffffffffffffffff1673ffffffffffffffffffffffffffffffffffffffff16815260200190815260200160002060003373ffffffffffffffffffffffffffffffffffffffff1673ffffffffffffffffffffffffffffffffffffffff16815260200190815260200160002060009054906101000a900460ff16806114c157503373ffffffffffffffffffffffffffffffffffffffff168673ffffffffffffffffffffffffffffffffffffffff16145b6114ca57600080fd5b826000808873ffffffffffffffffffffffffffffffffffffffff1673ffffffffffffffffffffffffffffffffffffffff168152602001908152602001600020600086815260200190815260200160002054036000808873ffffffffffffffffffffffffffffffffffffffff1673ffffffffffffffffffffffffffffffffffffffff168152602001908152602001600020600086815260200190815260200160002081905550826000808773ffffffffffffffffffffffffffffffffffffffff1673ffffffffffffffffffffffffffffffffffffffff1681526020019081526020016000206000868152602001908152602001600020600082825401925050819055508473ffffffffffffffffffffffffffffffffffffffff168673ffffffffffffffffffffffffffffffffffffffff163373ffffffffffffffffffffffffffffffffffffffff167fc3d58168c5ae7397731d063d5bbf3d657854427343f4c083240f7aacaa2d0f628787604051808381526020018281526020019250505060405180910390a46116a2338787878787878080601f016020809104026020016040519081016040528093929190818152602001838380828437600081840152601f19601f82011690508083019250505050505050611918565b6116ab57600080fd5b505050505050565b60006116be85611afb565b6116cb576001905061190e565b60008573ffffffffffffffffffffffffffffffffffffffff1663bc197c8189898888886040518663ffffffff1660e01b8152600401808673ffffffffffffffffffffffffffffffffffffffff1673ffffffffffffffffffffffffffffffffffffffff1681526020018573ffffffffffffffffffffffffffffffffffffffff1673ffffffffffffffffffffffffffffffffffffffff168152602001806020018060200180602001848103845287818151815260200191508051906020019060200280838360005b838110156117ac578082015181840152602081019050611791565b50505050905001848103835286818151815260200191508051906020019060200280838360005b838110156117ee5780820151818401526020810190506117d3565b50505050905001848103825285818151815260200191508051906020019080838360005b8381101561182d578082015181840152602081019050611812565b50505050905090810190601f16801561185a5780820380516001836020036101000a031916815260200191505b509850505050505050505060206040518083038186803b15801561187d57600080fd5b505afa158015611891573d6000803e3d6000fd5b505050506040513d60208110156118a757600080fd5b81019080805190602001909291905050509050600360049054906101000a900460e01b7bffffffffffffffffffffffffffffffffffffffffffffffffffffffff1916817bffffffffffffffffffffffffffffffffffffffffffffffffffffffff1916149150505b9695505050505050565b600061192385611afb565b6119305760019050611af1565b60008573ffffffffffffffffffffffffffffffffffffffff1663f23a6e6189898888886040518663ffffffff1660e01b8152600401808673ffffffffffffffffffffffffffffffffffffffff1673ffffffffffffffffffffffffffffffffffffffff1681526020018573ffffffffffffffffffffffffffffffffffffffff1673ffffffffffffffffffffffffffffffffffffffff16815260200184815260200183815260200180602001828103825283818151815260200191508051906020019080838360005b83811015611a125780820151818401526020810190506119f7565b50505050905090810190601f168015611a3f5780820380516001836020036101000a031916815260200191505b50965050505050505060206040518083038186803b158015611a6057600080fd5b505afa158015611a74573d6000803e3d6000fd5b505050506040513d6020811015611a8a57600080fd5b81019080805190602001909291905050509050600360009054906101000a900460e01b7bffffffffffffffffffffffffffffffffffffffffffffffffffffffff1916817bffffffffffffffffffffffffffffffffffffffffffffffffffffffff1916149150505b9695505050505050565b600080823b90506000811191505091905056fe6f6e455243313135354261746368526563656976656428616464726573732c616464726573732c75696e743235365b5d2c75696e743235365b5d2c6279746573296f6e45524331313535526563656976656428616464726573732c616464726573732c75696e743235362c75696e743235362c627974657329a26469706673582212202001637c9298072c4a20caa8c601f3124bc0413a283aa032f91686646103b67f64736f6c634300060000336f6e455243313135354261746368526563656976656428616464726573732c616464726573732c75696e743235365b5d2c75696e743235365b5d2c6279746573296f6e45524331313535526563656976656428616464726573732c616464726573732c75696e743235362c75696e743235362c627974657329",
  "source": "pragma solidity ^0.6.0;\r\n\r\nimport './IERC1155.sol';\r\nimport './IERC1155TokenReceiver.sol';\r\n\r\ncontract ERC1155 is IERC1155, IERC1155TokenReceiver{\r\n    event TransferSingle(address indexed _operator, address indexed _from, address indexed _to, uint256 _id, uint256 _value);\r\n    event TransferBatch(address indexed _operator, address indexed _from, address indexed _to, uint256[] _ids, uint256[] _values);\r\n    event ApprovalForAll(address indexed _owner, address indexed _operator, bool _approved);\r\n    event URI(string _value, uint256 indexed _id);\r\n\r\n    mapping (address => mapping(uint256 => uint256)) private _balance;\r\n    mapping (address => uint256) private _etherBalance;\r\n    mapping (address => mapping (address => bool)) private _approv;\r\n\r\n    bytes4 private _ERC1155Received = bytes4(keccak256(\"onERC1155Received(address,address,uint256,uint256,bytes)\"));\r\n    bytes4 private _ERC1155BatchReceived = bytes4(keccak256(\"onERC1155BatchReceived(address,address,uint256[],uint256[],bytes)\"));\r\n\r\n    constructor() public {        \r\n    }\r\n\r\n    function onERC1155Received(\r\n        address _operator, \r\n        address _from, \r\n        uint256 _id, \r\n        uint256 _value, \r\n        bytes calldata _data\r\n    ) external override view returns(bytes4){\r\n        return bytes4(keccak256(\"onERC1155Received(address,address,uint256,uint256,bytes)\"));\r\n    }\r\n\r\n    function onERC1155BatchReceived(\r\n        address _operator, \r\n        address _from, \r\n        uint256[] calldata _ids, \r\n        uint256[] calldata _values, \r\n        bytes calldata _data\r\n    ) external override view returns(bytes4){\r\n        return bytes4(keccak256(\"onERC1155BatchReceived(address,address,uint256[],uint256[],bytes)\"));\r\n    } \r\n\r\n    //test function\r\n    function mint(uint256 id, uint256 amount) external {\r\n        \r\n        _balance[msg.sender][id] = amount;\r\n    }\r\n\r\n    //if ether are sended to the contract\r\n    fallback() external payable{\r\n        require(msg.data.length == 0);\r\n        _etherBalance[msg.sender] += msg.value;\r\n    }\r\n\r\n    function depositEther() external payable{\r\n        _etherBalance[msg.sender] += msg.value;\r\n    }\r\n    \r\n    function etherBalanceOf(address owner) external view returns(uint256){\r\n        return _etherBalance[owner];\r\n    }\r\n\r\n    function safeTransferFrom(address _from, address _to, uint256 _id, uint256 _value, bytes calldata _data) external override{\r\n        require(_to != address(0) && _from != address(0));\r\n        require(_balance[_from][_id] >= _value);\r\n        require(_approv[_from][msg.sender] || _from == msg.sender);\r\n        _balance[_from][_id] = _balance[_from][_id] - _value;\r\n        _balance[_to][_id] += _value; \r\n        emit TransferSingle(msg.sender, _from,  _to, _id, _value);\r\n        require(_checkOnERC1155Received(msg.sender, _from, _to, _id, _value, _data));\r\n    }\r\n\r\n    function safeBatchTransferFrom(address _from, address _to, uint256[] calldata _ids, uint256[] calldata _values, bytes calldata _data) external override{\r\n        require(_to != address(0) && _from != address(0));\r\n        require(_ids.length != _values.length);\r\n        require(_approv[_from][msg.sender] || _from == msg.sender);\r\n        for (uint256 i = 0; i < _ids.length; ++i) {\r\n            require(_balance[_from][_ids[i]] >= _values[i]);\r\n            _balance[_from][_ids[i]] -= _values[i];\r\n            _balance[_to][_ids[i]] += _values[i];\r\n        }\r\n        emit TransferBatch(msg.sender, _from, _to, _ids, _values);\r\n        require(_checkOnERC1155BatchReceived(msg.sender, _from, _to, _ids, _values, _data));\r\n    }\r\n\r\n    function balanceOf(address _owner, uint256 _id) external override view returns (uint256){\r\n        require(_owner != address(0));\r\n        return _balance[_owner][_id];\r\n    }\r\n\r\n    function balanceOfBatch(address[] calldata _owners, uint256[] calldata _ids) external override view returns (uint256[] memory){\r\n        uint256[] memory _balances;\r\n        for (uint256 i = 0; i < _owners.length; ++i) {\r\n            require(_owners[i] != address(0));\r\n            _balances[i] = _balance[_owners[i]][_ids[i]]; \r\n        }\r\n        return _balances;\r\n    }\r\n\r\n    function setApprovalForAll(address _operator, bool _approved) external override{\r\n        require(_operator != address(0));\r\n        require(msg.sender != _operator);\r\n\r\n        _approv[msg.sender][_operator] = _approved;\r\n        emit ApprovalForAll(msg.sender, _operator, _approved);\r\n    }\r\n\r\n    function isApprovedForAll(address _owner, address _operator) external override view returns (bool){\r\n        return _approv[_owner][_operator];\r\n    }\r\n\r\n    function _checkOnERC1155Received(\r\n        address _operator, \r\n        address _from, \r\n        address _to, \r\n        uint256 _tokenId, \r\n        uint256 _amount, \r\n        bytes memory _data\r\n    ) internal returns (bool){\r\n        if (!isContract(_to)) {\r\n            return true;\r\n        }\r\n        bytes4 retval = IERC1155TokenReceiver(_to).onERC1155Received(_operator, _from, _tokenId, _amount,_data);\r\n        return (retval == _ERC1155Received);\r\n    }\r\n\r\n    function _checkOnERC1155BatchReceived(\r\n        address _operator, \r\n        address _from, \r\n        address _to, \r\n        uint256[] memory _Ids, \r\n        uint256[] memory _amounts, \r\n        bytes memory _data\r\n    ) internal returns (bool){\r\n        if (!isContract(_to)) {\r\n            return true;\r\n        }\r\n        \r\n        bytes4 retval = IERC1155TokenReceiver(_to).onERC1155BatchReceived(_operator, _from, _Ids, _amounts,_data);\r\n        return (retval == _ERC1155BatchReceived);\r\n    }\r\n\r\n    function isContract(address addr) internal returns (bool) {\r\n        uint size;\r\n        assembly{ size := extcodesize(addr)}\r\n        return size > 0;\r\n    }\r\n}",
  "sourcePath": "C:/Users/esdra/OneDrive/rea de Trabalho/solTraining/contracts/ERC1155/ERC1155.sol",
  "compiler": {
    "name": "solc",
    "version": "0.6.0+commit.26b70077.Emscripten.clang"
  },
  "schemaVersion": "3.3.4",
  "updatedAt": "2021-05-09T16:26:33.949Z",
  "networkType": "ethereum",
  "devdoc": {
    "methods": {}
  },
  "userdoc": {
    "methods": {}
  }
}